:020000040800F2
:100000000008002091010008DB130008FF1200081F
:10001000D9130008870300085916000800000000E3
:100020000000000000000000000000006114000853
:100030008903000800000000DD13000863140008B5
:10004000AB010008AB010008AB010008AB010008E0
:10005000AB010008AB010008AB010008AB010008D0
:10006000AB010008AB010008AB010008AB010008C0
:10007000AB010008AB010008AB010008AB010008B0
:10008000AB010008AB010008AB010008AB010008A0
:10009000AB010008AB010008AB010008AB01000890
:1000A00000000000AB010008AB010008AB01000834
:1000B000AB010008AB010008AB010008AB01000870
:1000C000AB010008AB010008AB010008AB01000860
:1000D000AB010008AB010008AB010008AB01000850
:1000E000AB010008AB010008AB010008AB01000840
:1000F000AB01000800F002F800F03AF80AA090E81E
:10010000000C82448344AAF10107DA4501D100F0D2
:100110002FF8AFF2090EBAE80F0013F0010F18BF65
:10012000FB1A43F001031847401600006016000058
:10013000103A24BF78C878C1FAD8520724BF30C813
:1001400030C144BF04680C607047000000230024E5
:1001500000250026103A28BF78C1FBD8520728BFD7
:1001600030C148BF0B6070471FB51FBD10B510BD33
:1001700000F0CFF81146FFF7F7FF01F07FFA00F02B
:10018000EDF803B4FFF7F2FF03BC00F0F5F8000050
:100190000948804709480047FEE7FEE7FEE7FEE71B
:1001A000FEE7FEE7FEE7FEE7FEE7FEE70448054957
:1001B000054A064B70470000D5140008F5000008FA
:1001C000000200200008002000040020000400209D
:1001D00053EA020C00F069802DE9F04B4FF0000665
:1001E000002B1FBFB3FA83F503FA05F424FA05F6D2
:1001F0005E4012BF1643B2FA82F502FA05F4C5F169
:1002000020051EBF22FA05FC44EA0C04203556EAFC
:10021000044C4FEA144418BF641C4FF000084FF020
:100220000009904271EB030C39D3002919BFB1FAD0
:1002300081F701FA07F6B0FA80F700FA07F6C7F17E
:1002400020071EBF20FA07FC46EA0C062037B6FB43
:10025000F4FCA7EB0507103F07F01F0BCBF12006BE
:100260000CFA0BFB2CFA06F644BFB3460026202FEF
:10027000A4BF5E464FF0000B5BEA060C08BF4FF0D0
:10028000010B19EB0B09ABFB027C48EB0608C01B0A
:1002900006FB02CC0BFB03CC71EB0C01C1E70B4658
:1002A000024641464846BDE8F08B13B54FF00000CA
:1002B0004FF00001AFF30080BDE81C4070474FF0E5
:1002C000000200B5134694469646203922BFA0E8A6
:1002D0000C50A0E80C50B1F12001BFF4F7AF0907B2
:1002E00028BFA0E80C5048BF0CC05DF804EB8900A3
:1002F00028BF40F8042B08BF704748BF20F8022BE6
:1003000011F0804F18BF00F8012B704770477047FD
:100310007047754600F02CF8AE4605006946534616
:1003200020F00700854618B020B5FFF73FFFBDE875
:1003300020404FF000064FF000074FF000084FF04C
:10034000000B21F00701AC46ACE8C009ACE8C009DD
:10035000ACE8C009ACE8C0098D46704710B504464A
:10036000AFF300802046BDE81040FFF70ABF000051
:1003700000487047A001002001491820ABBEFEE7ED
:10038000260002007047FEE770470000F8B5002421
:10039000009490F848202546012A12D0012280F8C6
:1003A00048204A681F23072A0DD20668376C521E60
:1003B00002EB820293409F430B6893401F433764D4
:1003C00035E00220F8BD0D2A0BD20768FE6BD21F64
:1003D00002EB820293409E430B6893401E43FE63F0
:1003E00025E0132A0BD20668B76B0D3A02EB8202A6
:1003F00093409F430B6893401F43B76317E0066821
:10040000192A0AD2776B133A02EB820293409F4378
:100410000B6893401F43776309E0376B193A02EB8F
:10042000820293409F430B6893401F4337630A68DF
:1004300007230A2A0AD20668776902EB4202934030
:100440009F438B6893401F4377611CE0142A0BD2B3
:1004500007683E690A3A02EB420293409E438B686A
:1004600093401E433E610EE01A2A0BD80768FE68CF
:10047000143A02EB420293409E438B6893401E4322
:10048000FE6000E000BF0A68102A01D0112A17D1CF
:100490000D4A13681B0213D4136843F4000313605E
:1004A000096810290CD10949094A0968B1FBF2F120
:1004B00001EB8101490000E0491E00910029FBD1B8
:1004C00080F848502046F8BD042701407C000020F9
:1004D00040420F00F8B504004FF0000503D0E06C77
:1004E000002610B110E00120F8BD26655C4884F8B4
:1004F0004860016841F001010160006800F00100FE
:100500000090204600F0B6F8E06CC0067AD4E06CAB
:1005100020F4885040F00200E064524801686268AC
:1005200021F44031114301606169E0684FF40073C8
:10053000084394F83C2093FAA3F3B3FA83F3216AB7
:100540009A4011430843022194F8242091FAA1F122
:10055000B1FA81F102FA01F10843616B102902D06E
:10056000A36B19430843236819684FF48077C94384
:10057000490629D5A169D4F81CC00843A168D4F85C
:1005800010E041EA0C01BE450CD0BEF1010F09D0CC
:100590004FF0000C41EA0C0194F82CC0BCF1010FA3
:1005A00002D00AE0BC46F5E76AB3E26C42F02002F2
:1005B000E264226D42F0010222655A68DFF8A8C0A9
:1005C00002EA0C020A435A6021688A68274B1A40E3
:1005D00002438A602169B94224D0012922D02168CE
:1005E0000A6B22F0F8720A6321688968204A114078
:1005F000814227D12665E06C20F0020040F0010026
:10060000E0642AE028E0FFE74FF4604C226B9CFA9C
:10061000ACFCBCFA8CFC521E02FA0CF20A4342F407
:100620000061CAE721680A6B4FF0F87722F0F8738F
:10063000A26A97FAA7F7B7FA87F7521EBA40134390
:100640000B63D1E7E06C20F0020040F01000E064A2
:10065000206D40F00100206501252846F8BD00000E
:100660002038024004270140FF16FCFC8DF1FFC03A
:10067000FEFF80BF10B586B0044614216846FFF720
:100680001EFE1149206888421CD11048016841F4BF
:1006900000710160006800F4007005900B48001FB5
:1006A000016841F0010101600068694600F0010045
:1006B0000590012000900320019000200290044842
:1006C00000F01AF806B010BD0024014020380240A6
:1006D0000000024070B5044600F036F90546601C83
:1006E00002D004484068044400F02EF9401BA042A8
:1006F000FAD370BD700000202DE9F04FDFF80C92A6
:10070000002209F1040A012503240AF1040B85B033
:100710000F260BF1040EF0E005FA02F71CEA0703BE
:100720007ED091F804C00CF0030CBCF1010F02D094
:10073000BCF1020F26D1D0F808C0CDF800C04FEAB6
:10074000420C04FA0CF8CDF810C0DDF800C02CEA19
:10075000080CCDF800C0D1F80C80DDF810C008FA04
:100760000CF8DDF800C048EA0C08C0F80880D0F8A2
:1007700004C02CEA070C0F79C7F30017974047EA2B
:100780000C0747600F79FF43BF070ED0C7684FEAD9
:10079000420804FA08FC27EA0C07D1F808C00CFA52
:1007A00008FC4CEA070CC0F80CC00F7907F00307EF
:1007B000022F15D1D70800EB870702973F6A4FEA4F
:1007C000427C4FEADC6806FA08FC27EA0C07D1F8FD
:1007D00010C00CFA08FC4CEA070C029FC7F820C0B6
:1007E00007684FEA420804FA08FC27EA0C0791F868
:1007F00004C00CF0030C0CFA08FC4CEA070CC0F81F
:1008000000C04F6817F4403F76D0414FD7F800C082
:100810004CF0010CC7F800C03F6807F0010700E08A
:100820006AE000973B4F22F0030C67440297BF68D1
:100830004FEA827C4FEA1C7806FA08FC27EA0C078C
:10084000DFF8D4C0604502D14FF0000C1DE0DFF8A6
:10085000CCC0604502D14FF0010C16E0DFF8C0C0FB
:10086000604502D14FF0020C0FE0DFF8B8C06045E0
:1008700002D14FF0030C08E0DFF8ACC0604502D1B4
:100880004FF0040C01E04FF0050C0CFA08FC4CEAA8
:10089000070C029FC7F808C0D9F80070CC46D1F801
:1008A00004809F435FEAC83800D51F43CCF800702E
:1008B000DAF80070D446D1F804809F435FEA8838A4
:1008C00000D51F43CCF80070DBF80070DC46D1F88F
:1008D00004809F435FEAC82800D51F43CCF800700E
:1008E000DEF80070F446D1F804809F435FEA882860
:1008F00000D51F43CCF80070521C0B689C46D340B7
:100900007FF40AAF05B0BDE8F08F0000000401409D
:100910002038024000000140000002400004024074
:1009200000080240000C024000100240426921EA27
:1009300002030A4043EA0241816170470AB18161C2
:1009400070470904FBE70000014880687047000019
:10095000700000200248816842681144816070473D
:100960007000002010B50024032000F06BF80F2069
:1009700000F008F808B1012401E000F025F8204655
:1009800010BD000070B50E4E05460024706898B189
:100990004FF47A71B1FBF0F00A490968B1FBF0F04D
:1009A00000F09CFB40B9102D06D200222946501EB3
:1009B00000F028F8356000E00124204670BD0000FA
:1009C000700000207C0000200D4808B5016841F04F
:1009D00000410160016801F000410091011F0A68B7
:1009E00042F001020A60096801F00101009101680A
:1009F00041F080510160006800F08050009008BD17
:100A000024380240F0B40E4B1B680C46C3F302239B
:100A1000C3F10705042D00D90425191D072901D2AA
:100A2000002300E0DB1E012606FA05F1491E2140E5
:100A300099409E40761E16403143F0BC00F00DBE3A
:100A40000CED00E0064900F0070208684FF6FF03CE
:100A5000184040EA0220034A104308607047000033
:100A60000CED00E00000FA052DE9F0470E46050008
:100A700079D0DFF88481D8F8000000F00100B0429E
:100A800014D2012E05D1D8F8001041F00401C8F8A5
:100A90000010D8F8001021F001013143C8F800100F
:100AA000D8F8000000F00100B0425CD12878534C27
:100AB000800705D52068A96820F0F0000843206071
:100AC0002878C0075CD04D496868083902281AD0D8
:100AD00003281BD0096801281BD08905002966DA84
:100AE000216821F0030101432160FFF72DFF6968B0
:100AF000074641F28830022914D0032920D0012969
:100B000081462AD038E009688903E7E70968890146
:100B1000E4E78907E2E700BFFFF716FFC11B49457D
:100B200001D926E081462068C0F381000228F3D174
:100B300026E000BFFFF708FFC11B494501D918E0B7
:100B400081462068C0F381000328F3D118E000BF7C
:100B5000FFF7FAFEC11B49450BD82068C0F381009E
:100B60000128F5D10CE022E0FFF7EEFEC11B49455C
:100B700002D90320BDE8F087206810F00C0FF3D1F4
:100B8000D8F80010404601F00101B14211D9012E00
:100B900003D1016841F004010160016821F0010105
:100BA00031430160006800F00100B04201D0012033
:100BB000E0E72878400705D52068E96820F4E06080
:100BC000084320602878000706D52068296920F4AA
:100BD000605040EAC100206000F038F82168084AFF
:100BE000C1F30311515CC84006490860064800681B
:100BF000BDE8F047FFF7C6BE003C0240083802409F
:100C00004D1700087C0000207000002004480549B2
:100C100000680968044AC1F30221515CC84070476A
:100C20007C000020083802405D1700080448054990
:100C300000680968044AC1F3C221515CC84070478A
:100C40007C000020083802405D17000870B5154D83
:100C50002968154801F00C02042A0CD0134C082A0C
:100C60000AD00C2A0AD0281F0068C0F342314FF482
:100C70000040491C884070BD204670BD0C4AC1F33D
:100C80008343D35CC1F381522968521CC90302D546
:100C9000A3FB040101E0A3FB00010023FFF798FA86
:100CA00070BD0000083802400024F40000366E01D8
:100CB000441700082DE9F84F04007DD0FC48016876
:100CC000006801F00C0700F480362078F94DC00769
:100CD00041D0082F12D00C2F02D1B6F5803F0DD095
:100CE0006068012811D008B1052818D0286820F4C0
:100CF00080302860286820F4802009E0286880037C
:100D000029D560680028D8D025E0286840F48030D4
:100D10002860606890B1FFF717FE80460AE02868F7
:100D200040F480202860F0E7FFF70EFEA0EB0800FB
:100D300064287BD828688003F6D50CE0FFF704FE12
:100D4000804605E0FFF700FEA0EB08006428F0D81D
:100D500028688003F6D42078DFF85CB3DFF85C8382
:100D600080074FF001094FF0000A35D5042F0AD053
:100D70000C2F00D13EB1E068F8B1C8F80090FFF741
:100D8000E3FD06460BE0286880070BD5E0680128E4
:100D900012D107E0FFF7D8FD801B0228C9D82868C8
:100DA0008007F7D5DBF80010226921F4F85141EAF9
:100DB0000221CBF800100FE077E1C8F800A0FFF7A0
:100DC000C3FD064605E000BFFFF7BEFD801B0228FD
:100DD000AFD828688007F7D42078C00674D53FB113
:100DE000A069E0B3C8F82090FFF7AEFD06464AE0E0
:100DF0002868800502D5A069002884D0206ADBF825
:100E000000105E4601F46041884210D900F0E8FA13
:100E10000028BDD13068216A20F46040084330606A
:100E2000217F306861F31F6030600FE096E0316829
:100E300021F4604101433160217F306861F31F601C
:100E40003060206A00F0CCFA0028A1D1216A4FF46A
:100E5000004009EB513188409549096800E025E0E0
:100E6000974AC1F30311515CC840964908609648FF
:100E70000068FFF787FD00286FD125E0FFF764FDCC
:100E8000801B02286AD828688005F7D5DBF8001097
:100E9000226A21F460411143CBF80010227FDBF875
:100EA000001062F31F61CBF800100DE0C8F820A01D
:100EB000FFF74AFD064604E0FFF746FD801B0228C7
:100EC0004CD828688005F7D42078804E000722D5BA
:100ED0007F48616981B1C0F80090FFF735FD834616
:100EE00006E000BFFFF730FDA0EB0B00022835D86D
:100EF00030688007F6D50EE0C0F800A0FFF724FDAB
:100F0000834605E0FFF720FDA0EB0B00022825D863
:100F100030688007F6D4207840076DD56B484FF0D5
:100F2000000B10380068C0000BD468481038016806
:100F300041F08051016000684FF0010B00F08050DB
:100F4000009064480168C90514D4016841F48071B7
:100F50000160FFF7F9FC009008E08DE079E000BF48
:100F6000FFF7F2FC0099401A642872D859480068CB
:100F7000C005F5D5A06801280AD008B1052811D010
:100F8000306820F480703060306820F4806002E0C7
:100F9000306840F480703060A068A8B1FFF7D4FCDE
:100FA00000900DE0306840F480603060F0E700BFF2
:100FB000FFF7CAFC0099411A41F2883081425AD8A1
:100FC00030688005F4D50EE0FFF7BEFC009007E026
:100FD000FFF7BAFC0099411A41F2883081424AD8A1
:100FE00030688005F4D4BBF1000F05D037481038C5
:100FF000016821F080510160606A58B30C2F41D024
:101000000228504605D0C8F86000FFF79DFC044652
:1010100034E04746C8F86000FFF796FC064604E057
:10102000FFF792FC801B022825D828688001F7D49E
:10103000D4E90A1001431E48226B036823F47D03A0
:101040001A4311430160C7F86090FFF77DFC044626
:1010500007E010E040E000BFFFF776FC001B02282D
:1010600009D828688001F7D536E000BFFFF76CFC8F
:10107000001B022802D90320BDE8F88F28688001F0
:10108000F4D429E00128F7D009480068A26A00F4E6
:101090008031914209D1E26A00F47011914204D189
:1010A000216B00F44000884216D00120E4E70000E4
:1010B000083802400038024004380240000047422D
:1010C0004D1700087C0000207000002034380240DA
:1010D00080064742007000400020CDE710B5401E5A
:1010E000B0F1807F01D3012010BD4FF0E02460619A
:1010F0000F21601700F0B1FA0020A06107202061E5
:10110000002010BD70B5040004D094F83D00002507
:1011100010B106E0012070BD84F83C50204600F07C
:1011200023F8242084F83D002068C16821F4005190
:10113000C160204600F0D0F92068016921F4904197
:1011400001612068416921F02A0141612068C1687C
:1011500041F40051C1602564202084F83D0084F8EA
:101160003E00002070BD0000F0B587B00446142199
:101170006846FFF7A4F82F4A276800232E49022467
:10118000032507262D48974218D10A1D176847F4F2
:1011900080471760126802F4804205920A6842F0A4
:1011A00001020A60096802AA01F0010105916902C1
:1011B000CDE9001482E8680069461AE01E4ADFF8AB
:1011C00080C00832674518D1176847F400371760A8
:1011D000126802F4003205920A6842F001020A60C5
:1011E000096801F0010105910C21CDE9001469465F
:1011F0001CE0FFF781FA07B0F0BD12488742FAD130
:10120000106840F480201060106800F48020059081
:10121000086840F0020008600868694600F00200B3
:1012200005904FF44060CDE90004074802AF87E81D
:101230006800DEE7003801401C3802400000024030
:101240000044004000480040000402402DE9F843FB
:10125000044690F83D001F4616460D4620284CD106
:10126000C5B1BEB194F83C00012846D0012084F8F5
:101270003C004FF00008C4F84080212084F83D0075
:10128000FFF762FBA6848146E684A068B0F5805F24
:1012900003D004E00120BDE8F883206928B12E4680
:1012A0005FF0000584F83C800EE00026FAE780211C
:1012B000204600F09FF9A0B9AEB116F8010B2168E5
:1012C0004860E08C401EE084E08C4B464FF000020A
:1012D00000970028EBD14FF04001204600F08AF93A
:1012E00030B10320D7E735F8020BC0F30800E6E77A
:1012F000202084F83D000020CDE70220CBE7FEE768
:101300003EB5002415480094019413490294C0E9A5
:1013100000148460C460046144618461C461046237
:1013200080F824400125856280F82C401021C0E916
:101330000D1480F83C40FFF7CDF808B172B6FEE717
:10134000CDE90045694605480294FFF71FF80028DB
:1013500001D072B6FEE73EBD0024014080000020AF
:1013600070B586B014216846FEF7A9FF18480168D9
:1013700041F001010160016801F00101059101687E
:1013800041F0020101600068124E00F00200059079
:10139000002240F201113046FFF7D0FA012202216B
:1013A0003046FFF7CBFA40F20310009001250024ED
:1013B000CDE90154694630460394FFF79DF92803AF
:1013C0008DE8310069463046FFF796F906B070BDEA
:1013D0001C38024000040240FEE7FEE770470000B0
:1013E00038B51C49002309681B4A11F0F00F23D1BE
:1013F00018491C310C68E500184C03D5216801F42C
:10140000C0540EE00D6845F080550D600D6805F084
:101410008055009524680D6804F4C05425F080556B
:101420000D60B4F5C05F07D1B0F5404F04D110682E
:10143000012340F004001060106820F00100184300
:101440001060106800F00100984201D0012038BD02
:10145000002038BD08380240003C024000700040C7
:101460007047FFF777BA000010B592B03421684694
:10147000FEF725FF14210DA8FEF721FF144801688F
:1014800021F4C05141F4006101601220009001205C
:101490001021CDE903010024CDE906044FF42040DA
:1014A000CDE908046846FFF705FC08B172B6FEE70F
:1014B0000F20CDE90D040F94109400210DA8119474
:1014C000FFF7D2FA002801D072B6FEE712B010BDC5
:1014D00000700040704700002DE9F04104460068AC
:1014E0000169E26821F44051114301612169A0685A
:1014F000E26908436169114322680843D16849F2EF
:101500000C6399430143D16020684169A26921F4C9
:1015100040711143416136492068884202D1FFF78A
:1015200085FB01E0FFF772FB0246E369642032218C
:10153000B3F5004F02EBC20303EB021362682BD03A
:101540009200B3FBF2F5B5FBF0F5B3FBF2F66FF0EA
:1015500018077D4306EB8505B3FBF2F601EB051595
:10156000B5FBF0F5B6FBF0F605F0F00505EB06155A
:10157000B3FBF2F6B3FBF2F2B2FBF0F27A4306EB06
:10158000820201EB0211B1FBF0F000F00F002168C4
:1015900028448860BDE8F0815200B3FBF2F6B6FB48
:1015A000F0F6B3FBF2F7B3FBF2F56FF0180C06FBA5
:1015B0000CF607EB860601EBC606B5FBF0F5B6FBAD
:1015C000F0F62D0106F0F80605EB4605B3FBF2F642
:1015D000B3FBF2F2B2FBF0F202FB0CF206EB82027A
:1015E00001EBC201B1FBF0F000F00700CFE7000013
:1015F000003801402DE9F041984617460E46044652
:10160000069D1DE0681C1BD02DB1FFF79DF9A0EBD6
:101610000800A84214D92068C16821F4D071C160C3
:101620002068416921F001014161202084F83D00DA
:1016300084F83E00002084F83C000320BDE8F081DF
:101640002068006836EA000004D00020B842D9D0F3
:101650000020F3E70120F9E7FEE70907090E00285B
:1016600004DB00F1E02080F80014704700F00F0068
:1016700000F1E02080F8141D70470000FFF772F9B8
:10168000FFF7F2FEFFF76CFEFFF73AFE2848274906
:101690004FF4165600240160C0E901640C25C460B3
:1016A000C0E904458461C461FFF72CFD08B172B63E
:1016B000FEE71F481F4944300160C0E90164C4606F
:1016C000C0E904458461C461FFF71CFD08B172B62E
:1016D000FEE71748184988300160C0E90164C4601A
:1016E000C0E904458461C461FFF70CFD08B172B61E
:1016F000FEE7124C41F2883501212046FFF716F92A
:10170000C820FEF7E7FF02212046FFF70FF9C820A7
:10171000FEF7E0FF06482B466F2209494430FFF7E9
:1017200095FDC820FEF7D6FFE6E70000003801402F
:10173000D400002000440040004800400004024063
:1017400000000020030406080C10182030000000E0
:101750000000000000010203040607080900000061
:1017600000010203040000008817000800000020A8
:1017700080000000300100080818000880000020E8
:10178000800700004C010008202A2A2A2A205541FF
:1017900052545F54776F426F617264735F436F6D31
:1017A000506F6C6C696E67202A2A2A2A20202A2A08
:1017B0002A2A20554152545F54776F426F617264F8
:1017C000735F436F6D506F6C6C696E67202A2A2AB5
:1017D0002A20202A2A2A2A20554152545F54776F02
:1017E000426F617264735F436F6D506F6C6C696EB2
:1017F00067202A2A2A2A2000100000000100000089
:081800000000000068FF1F005A
:04000005080000F5FA
:00000001FF
