:020000040800F2
:10000000280F0020B11E00088701000889010008A0
:100010008D01000891010008950100080000000012
:10002000000000000000000000000000990100082E
:100030009B010008000000009D010008151B00083E
:10004000CB1E0008CB1E0008CB1E0008CB1E0008EC
:10005000CB1E0008CB1E0008CB1E0008CB1E0008DC
:10006000CB1E0008CB1E0008CB1E0008CB1E0008CC
:10007000CB1E0008CB1E0008CB1E0008CB1E0008BC
:10008000CB1E0008CB1E0008CB1E0008CB1E0008AC
:10009000CB1E0008CB1E0008CB1E0008CB1E00089C
:1000A000CB1E0008CB1E0008CB1E0008CB1E00088C
:1000B0006B1D0008CB1E0008CB1E0008CB1E0008DD
:1000C000CB1E0008CB1E0008CB1E0008CB1E00086C
:1000D000CB1E0008CB1E0008CB1E0008CB1E00085C
:1000E000CB1E0008CB1E0008CB1E000800F002F853
:1000F00000F03AF80AA090E8000C82448344AAF188
:100100000107DA4501D100F02FF8AFF2090EBAE885
:100110000F0013F0010F18BFFB1A43F0010318473B
:100120005424000074240000103A24BF78C878C119
:10013000FAD8520724BF30C830C144BF04680C60ED
:10014000704700000023002400250026103A28BF35
:1001500078C1FBD8520728BF30C148BF0B60704739
:100160001FB51FBD10B510BD01F0B5FF1146FFF75B
:10017000F7FF00F015F801F0D3FF03B4FFF7F2FF2B
:1001800003BC01F0DBFF704700BFFEE700BFFEE7E6
:1001900000BFFEE700BFFEE77047704770470000F2
:1001A00001F081FB01F0AEFB01F03EFE01F0EAFB45
:1001B00001F0FBFB0121042001F0C0FB01F017FC62
:1001C000472144F6206001F0AFFC69E000210320E4
:1001D00001F0B4FB0021042001F0B0FB4FF4FA70F1
:1001E00001F073FC0121032001F0A8FB0121042090
:1001F00001F0A4FB4FF4FA7001F067FC4FF4FA70C1
:10020000284908601EE00020274908600EE02548C4
:10021000006802F05DF82549234A126801EB0211DB
:10022000886021480068401C1F4908601E4800681B
:100230000628ECDB0A2001F048FC1A4800680A3066
:10024000184908601748006840F6C4118842DADB94
:100250000846144908601EE00020134908600EE0BB
:100260001048006802F034F810490F4A126801EB98
:10027000021188600C480068401C0B4908600A485D
:1002800000680628ECDB642001F01FFC05480068CC
:1002900064380449086003480068B0F5FA7FDBDC85
:1002A00094E7000004000020000000204800002027
:1002B00010B50446CC48844208D10121042000F046
:1002C0002DFB0021042000F029FB46E0C7488442B2
:1002D00008D10121082000F021FB0021082000F0B6
:1002E0001DFB3AE0C248844208D10121102000F0F1
:1002F00015FB0021102000F011FB2EE0BD488442C8
:1003000008D10121202000F009FB0021202000F06D
:1003100005FB22E0B848844208D10121402000F0CA
:10032000FDFA0021402000F0F9FA16E0B3488442BB
:1003300008D10121802000F0F1FA0021802000F096
:10034000EDFA0AE0AE48844207D10121801500F0A1
:10035000E5FA0021A01500F0E1FA10BD10B5012169
:10036000084600F0DBFA0021012000F0D7FA10BDAA
:100370002DE9F0410246002500260020002300243C
:10038000002791F803C00CF00F0591F803C00CF0A2
:10039000100CBCF1000F03D091F802C04CEA050527
:1003A00091F800C0BCF1000F31D0146800202BE0A0
:1003B0004FF0010C0CFA00F3B1F800C00CEA030690
:1003C0009E4220D183004FF00F0C0CFA03F7BC4380
:1003D00005FA03FC4CEA040491F803C0BCF1280FB1
:1003E00006D14FF0010C0CFA00FCC2F814C00AE070
:1003F00091F803C0BCF1480F05D14FF0010C0CFA85
:1004000000FCC2F810C0401C0828D1D31460B1F819
:1004100000C0BCF1FF0F34DD546800202EE000F175
:10042000080C4FF0010808FA0CF3B1F800C00CEA10
:1004300003069E4221D183004FF00F0C0CFA03F704
:10044000BC4305FA03FC4CEA040491F803C0BCF178
:10045000280F05D100F1080C08FA0CF8C2F8148036
:1004600091F803C0BCF1480F07D100F1080C4FF020
:10047000010808FA0CF8C2F81080401C0828CED3F6
:100480005460BDE8F0814FF6FF7101800221817058
:100490000421C17070470246002093680B400BB1E5
:1004A000012000E0002070470146886880B2704754
:1004B00002460020D3680B400BB1012000E0002071
:1004C00070470146C86880B270470161704741615A
:1004D00070470AB1016100E041617047C160704737
:1004E0004FF480320A43826181618261826982694C
:1004F000704702460020434B18684FF6807318403F
:1005000040EA021008433F4B186070473E49C861FB
:100510007047F0B50A46002300240021002500F0B2
:100520000046B6F1004F02D1364EF16901E0354E7A
:100530007168C0F3034583B200F44016B6F5401F5E
:1005400008D121F070612F4E766826F070662D4F2D
:100550007E6012E000F48016B6F5801F06D10326F7
:1005600006FA05F4A14341F0706106E0460D36013C
:1005700003FA06F6B14341F0706122B1460D36012F
:1005800003FA06F6314300F00046B6F1004F02D1FF
:100590001C4EF16101E01B4E7160F0BD30B50022D0
:1005A0008B071C0F0F2303FA04F2164B08338C1031
:1005B00053F824309343134C08348D1044F82530FD
:1005C00023468C1053F824308C07240F00FA04F4CF
:1005D00023430C4C08348D1044F8253030BD0A49B3
:1005E000DC3108607047000000080140000C014049
:1005F000001001400014014000180140001C01409F
:10060000002001400000014000002042DF48006857
:1006100040F00100DD49086008464068DC490840B8
:10062000DA49486008460068DA490840D749086056
:100630000846006820F4802008600846406820F4DE
:10064000FE0048604FF41F0088607047CF4909687A
:1006500021F48031CD4A11601146096821F48021CE
:100660001160B0F5803F03D0B0F5802F0ED106E0C9
:10067000C649096841F48031C44A116007E0C349A2
:10068000096841F4A021C14A116000E000BF00BF29
:10069000704710B501460022002300204A11012AAC
:1006A00002D1BA4C236806E0022A02D1B74C236A71
:1006B00001E0B64C636A01F01F02012494401C4023
:1006C0000CB1012000E0002010BD38B500200090E2
:1006D0000024002500BF3120FFF7DBFF054600980E
:1006E000401C00900098B0F5A06F01D0002DF2D012
:1006F0003120FFF7CEFF08B1012400E0002420469E
:1007000038BD01460020A14A106820F0F80040EAF8
:10071000C10010607047A049086070470246002081
:100720009A4B586820F47C1042EA01031843974B17
:100730005860704798490866704701460020934A00
:10074000506820F003000843506070478F484068AD
:1007500000F00C007047014600208C4A506820F0E1
:10076000F00008435060704701460020874A5068F7
:1007700020F4E06008435060704701460020834A3F
:10078000506820F4605040EAC1005060704729B1C1
:100790007E4A527A02437D4B5A7204E07B4A527A77
:1007A00082437A4B5A7270477B49D8310860704750
:1007B00001460020754A506820F4404008435060CC
:1007C00070470021714A20321170704A82F820105F
:1007D000012802D004280AD104E001216B4A20320A
:1007E000117005E00521694A2032117000E000BF58
:1007F00000BF70476949086070476449096A01434E
:10080000624A11627047654944390860704730B5E3
:1008100000210022002400235C4D6D6805F00C01CE
:1008200021B1042905D0082923D105E05C4D0560DC
:1008300022E05B4D05601FE0544D6D6805F47012B9
:10084000524D6D6805F48034022505EB92421CB9C7
:10085000544D554305600BE04C4D6D6805F4003573
:100860001DB1504D5543056002E04D4D55430560A7
:1008700002E04B4D056000BF00BF444D6D6805F0C0
:10088000F0010909484D6B5C0568DD4045603F4D4E
:100890006D6805F4E061090A434D6B5C4568DD4015
:1008A00085603A4D6D6805F46051C90A3E4D6B5C38
:1008B0004568DD40C560354D6D6805F44041890BE4
:1008C0003A4D6B5CC568B5FBF3F5056130BD29B1E8
:1008D0002E4A526902432D4B5A6104E02B4A526959
:1008E00082432A4B5A61704729B1284A92690243D0
:1008F000264B9A6104E0254A92698243234B9A6110
:10090000704729B1214AD2690243204BDA6104E0E1
:100910001E4AD26982431D4BDA61704729B11B4AD6
:10092000D2680243194BDA6004E0184AD268824365
:10093000164BDA60704729B1144A12690243134B0F
:100940001A6104E0114A12698243104B1A61704720
:1009500012494039086070470F49C86470470B4915
:10096000C87170470948406A40F080700749486282
:10097000704701460020054A92680A400AB10120EA
:1009800000E0002070470149887270470010024063
:100990000000FFF8FFFFF6FE0000424280044242E2
:1009A00000127A0000093D00080000201800002015
:1009B00031490143314A1160704770B5002100236D
:1009C0000F22C47804B32D4C246804F4E064C4F509
:1009D000E064210AC1F10403CA40447804FA03F137
:1009E0008478144021430901254C0678A1550478E8
:1009F00004F01F050124AC4005786D11AD0005F130
:100A0000E025C5F8004109E0047804F01F05012441
:100A1000AC401C4D0678761145F8264070BD1A4A48
:100A20000A400243154B1B1F1A60704739B1134A25
:100A3000121D12680243114B1B1D1A6006E00F4A7B
:100A4000121D126882430D4B1B1D1A60704704284B
:100A500008D14FF0E021096941F004014FF0E02294
:100A6000116107E04FF0E021096921F004014FF026
:100A7000E0221161704700000000FA050CED00E073
:100A800000E400E080E100E080FFFF1F10B50446B5
:100A9000FE48844208D10121C014FFF73FFF002126
:100AA000E014FFF73BFFC4E0B4F1804F08D101210F
:100AB0000846FFF740FF00210120FFF73CFFB8E0A8
:100AC000F348844208D101210220FFF734FF0021BE
:100AD0000220FFF730FFACE0EE48844208D101214C
:100AE0000420FFF728FF00210420FFF724FFA0E0E7
:100AF000E948844208D101210820FFF71CFF0021AA
:100B00000820FFF718FF94E0E448844208D101214F
:100B10001020FFF710FF00211020FFF70CFF88E0E6
:100B2000DF48844208D101212020FFF704FF002183
:100B30002020FFF700FF7CE0DA48844208D1012141
:100B40004014FFF7EBFE00216014FFF7E7FE70E0B2
:100B5000D548844209D10121C804FFF7DFFE0021F6
:100B60004FF40020FFF7DAFE63E0D048844209D159
:100B700001210805FFF7D2FE00214FF48010FFF796
:100B8000CDFE56E0CA48844209D101214805FFF74D
:100B9000C5FE00214FF40010FFF7C0FE49E0C54834
:100BA000844208D101214020FFF7C5FE00214020EA
:100BB000FFF7C1FE3DE0C048844208D101218020FA
:100BC000FFF7B9FE00218020FFF7B5FE31E0BB48FA
:100BD000844208D101218015FFF7ADFE0021A01548
:100BE000FFF7A9FE25E0B648844209D10121080497
:100BF000FFF794FE00214FF48030FFF78FFE18E0DE
:100C0000B048844209D101214804FFF787FE002142
:100C10004FF40030FFF782FE0BE0AB48844208D16E
:100C200001218804FFF77AFE00214FF48020FFF7AE
:100C300075FE10BD00220288944B98420ED0994B4D
:100C400098420BD0B0F1804F08D0914B984205D01C
:100C5000904B984202D0904B984204D14FF68F733C
:100C60001A404B881A438D4B984207D08C4B9842C0
:100C700004D04FF6FF431A40CB881A4302808B887A
:100C800083850B880385814B98420BD0854B984216
:100C900008D08B4B984205D08A4B984202D08A4BA1
:100CA000984201D10B7A038601238382704770B585
:100CB000002400220023058C4FF6FE763540058483
:100CC000028C8388048B4FF68F752C40B51E2C4008
:100CD0000D882C43751E2A400D892A434D882A43CE
:100CE0006A4DA8420BD06F4DA84208D0744DA8425F
:100CF00005D0744DA84202D0734DA84213D14FF6CF
:100D0000F7752A404D892A434FF6FB752A408D8896
:100D10002A434FF6FF652B404FF6FF552B408D8938
:100D20002B43CD892B4383800483CD888586028421
:100D300070BD70B5002400220023058C4FF6EF76BD
:100D400035400584028C8388048B48F6FF752C405F
:100D50004FF6FF452C400D884FF6FF7606EA052535
:100D60002C434FF6DF752A400D8906EA05152A4304
:100D70004D8806EA05152A43444DA84202D0494D44
:100D8000A8421DD14FF67F752A404D894FF6FF7658
:100D900006EA05152A434FF6BF752A408D8806EAF4
:100DA00005152A434FF6FF352B404FF2FF752B40B8
:100DB0008D8906EA85052B43CD8906EA85052B43F7
:100DC00083800483CD880587028470BD70B50024BC
:100DD00000220023058C4FF6FF6635400584028C07
:100DE0008388848B4FF68F752C404FF6FC752C4012
:100DF0000D882C434FF6FF552A400D894FF6FF769C
:100E000006EA05252A434D8806EA05252A431F4D93
:100E1000A84202D0234DA8421DD14FF2FF752A40AF
:100E20004D894FF6FF7606EA05252A434FF6FF3532
:100E30002A408D8806EA05252A434EF6FF752B4089
:100E40004DF6FF752B408D8906EA05152B43CD899C
:100E500006EA05152B4383808483CD888587028429
:100E600070BD70B5002200230024058C4EF6FF767D
:100E700035400584038C8488828B48F6FF752A40B0
:100E80004FF6FF452A400D8820E00000002C01406D
:100E90000004004000080040000C0040001000402A
:100EA0000014004000340140004C0140005001405B
:100EB0000054014000180040001C00400020004089
:100EC0000040014000440140004801404FF6FF76D9
:100ED00006EA05252A434DF6FF752B400D8906EAE3
:100EE00005352B434D8806EA05352B43FA4DA842BC
:100EF00002D0FA4DA84208D14BF6FF752C408D89DF
:100F00004FF6FF7606EA85152C4384808283CD88D0
:100F1000A0F84050038470BD828B4FF2FF331A401B
:100F20008283828B4FF6FF7303EA01231A43828385
:100F30007047F0B50C461546002200210026078CAC
:100F40004EF6FF7C07EA0C070784828B018C4FF674
:100F5000FF7707EA043640F6FF473A404FF6FF773F
:100F600007EA05273A434FF6FF7707EA03373A4384
:100F7000D94FB8420ED0D94FB8420BD0B0F1804F04
:100F800008D0D74FB84205D0D64FB84202D0D64F7E
:100F9000B84206D14DF6FF77394046F480573943C1
:100FA00005E047F6FF57394044F4805739438283C0
:100FB0000184F0BD828B4FF6F3731A408283828BDB
:100FC0000A4382837047F0B50C4615460022002183
:100FD0000026078C4FF6FF6C07EA0C070784828B0C
:100FE000018C4FF6FF7707EA04264FF60C773A405C
:100FF0004FF6FF7707EA03172F433A43B64FB8423D
:101000000ED0B64FB8420BD0B0F1804F08D0B44FDD
:10101000B84205D0B34FB84202D0B34FB84206D160
:101020004FF6FF57394046F48077394305E04FF2D9
:10103000FF57394044F48077394382830184F0BDFF
:10104000028B4FF2FF331A400283028B4FF6FF737D
:1010500003EA01231A4302837047F0B50C46154694
:10106000002200210026078C4FF6EF7C07EA0C07D0
:101070000784028B018C4FF6FF7707EA041640F6CF
:10108000FF473A404FF6FF7707EA03373A434FF6F8
:10109000FF7707EA05273A438F4FB8420ED08F4FAC
:1010A000B8420BD0B0F1804F08D08D4FB84205D078
:1010B0008C4FB84202D08C4FB84206D14FF6DF7742
:1010C000394046F01007394305E04FF65F77394065
:1010D00044F01007394302830184F0BD028B4FF6C0
:1010E000F3731A400283028B0A4302837047F0B500
:1010F0000C46154600220021068C4FF6FE773E4036
:101100000684028B018C4FF60C7632407E1C06EA78
:1011100003162E433243704EB0420ED06F4EB04293
:101120000BD0B0F1804F08D06D4EB04205D06D4E5F
:10113000B04202D06C4EB04206D14FF6FD7631403F
:1011400044F00106314305E04FF6F576314044F0B6
:101150000106314302830184F0BD70B505460C469B
:101160005D4885420ED05D4885420BD0B5F1804F79
:1011700008D05B48854205D05A48854202D05A487B
:10118000854200D100E000BF208850B92389A288A1
:1011900061882846FFF7ABFFE1882846FFF79EFFEE
:1011A00025E0208804280AD12389A288618828465E
:1011B000FFF753FFE1882846FFF742FF17E020883A
:1011C00008280AD12389A28861882846FFF7FBFEF8
:1011D000E1882846FFF7EEFE09E02389A2886188AE
:1011E0002846FFF7A6FEE1882846FFF795FE70BD6A
:1011F0002DE9F04105460C4600260127608808B914
:10120000022600E00026A088012801D1022700E084
:1012100001272088A0B92389A28861882846FFF782
:1012200066FFE1882846FFF759FF23893A46314691
:101230002846FFF712FFE1882846FFF701FF13E079
:101240002389A28861882846FFF707FFE18828469E
:10125000FFF7F6FE23893A4631462846FFF747FF57
:10126000E1882846FFF73AFFBDE8F0810A884B88FD
:101270001A438B881A43CB881A430B891A434B892C
:101280001A438B891A43A0F8442070474FF6FF7128
:10129000818000210180C18041800172704700215E
:1012A000018041808180C180018141818181C18132
:1012B0007047002101804180012181800021C1808F
:1012C000018170470021018041808180C1800181BE
:1012D0004181818170470000002C014000340140B1
:1012E0000004004000080040000C004021B10288CA
:1012F00042F00102028004E002884FF6FE731A40B9
:101300000280704731B1B0F8442042F40042A0F8A6
:10131000442005E0B0F84420C2F30E02A0F84420B7
:1013200070471AB183890B43838102E083898B4321
:10133000838170478182704741EA0203A0F84830F8
:1013400070471AB183890B43838102E083898B4301
:101350008381704701894FF6F8721140018170470F
:101360000A46002101894FF68F731940114301810C
:10137000704730B504460D4629462046FFF7F0FF7A
:10138000208940F00700208130BD2DE9F04104465E
:101390000D4616461F46602D06D13B4601223146BA
:1013A0002046FFF75AFE05E03B4601223146204623
:1013B000FFF79DFE29462046FFF7D2FF208940F027
:1013C00007002081BDE8F08130B50C46002101897D
:1013D000C9B24FF6FF7505EA032515432543294396
:1013E000018130BD2DE9F04105460E46174698466D
:1013F000002443463A4631462846FFF7E5FF2C894C
:101400004FF6F870044044F007044FF68F70044024
:1014100044F070042C81BDE8F081F0B504460D461F
:1014200016461F463B46324629462046FFF7CCFF6C
:10143000208940F480402081F0BD01858282704780
:101440000A46002101884FF68F731940114301802D
:101450007047F0B50C4615461E46002100220023B9
:101460000189028B038C4FF6F877394021434FF600
:10147000FC473A4040F201173A434FF6DD773B40D4
:101480004FF6FF7707EA06172F433B43018102839C
:101490000384F0BD0A460021018B4FF68F7319407B
:1014A0001143018370470A460021018B48F6FF7300
:1014B00019404FF6FF7303EA022319430183704773
:1014C0000A460021818B4FF68F73194011438183A7
:1014D00070470A460021818B48F6FF7319404FF68A
:1014E000FF7303EA022319438183704721B1028805
:1014F00042F08002028004E002884FF67F731A40B7
:101500000280704721B1828842F00402828004E0A8
:1015100082884FF6FB731A408280704721B182881F
:1015200042F00802828004E082884FF6F7731A4086
:101530008280704721B1828842F00102828004E0FB
:1015400082884FF6FE731A40828070470A46002157
:10155000018B4FF6F77319401143018370470A4618
:101560000021018B4FF2FF7319404FF6FF7303EA1E
:1015700002231943018370470A460021818B4FF6ED
:10158000F77319401143818370470A460021818B0C
:101590004FF2FF7319404FF6FF7303EA022319431A
:1015A000818370470A460021018B4FF6FB73194077
:1015B0001143018370470A460021018B4FF6FF3328
:1015C00019404FF6FF7303EA022319430183704762
:1015D0000A460021818B4FF6FB731940114381832A
:1015E00070470A460021818B4FF6FF3319404FF6B2
:1015F000FF7303EA02231943818370470A460021DF
:10160000018B4FF67F7319401143018370470A46DF
:101610000021018BC1F30E014FF6FF7303EA022391
:101620001943018370470A460021818B4FF67F736F
:1016300019401143818370470A460021818BC1F311
:101640000E014FF6FF7303EA0223194381837047AB
:101650000A460021018C4FF6FD73194011430184A5
:1016600070470A460021018C4FF6F7731940114369
:10167000018470470A460021018C4FF6DF73194040
:101680004FF6FF7303EA02131943018470470A46B9
:101690000021018C4FF67F7319404FF6FF7303EA68
:1016A00002131943018470470A460021018C4FF64A
:1016B000FF5319404FF6FF7303EA022319430184D5
:1016C00070470A460021018C4FF2FF7319404FF614
:1016D000FF7303EA02231943018470470A4600217D
:1016E000018C4DF6FF7319404FF6FF7303EA023386
:1016F00019430184704730B5002301248C40A3B204
:10170000048C9C430484048C02FA01F5ADB22C4392
:10171000048430BD30B5002304248C40A3B2048C73
:101720009C430484048C02FA01F5ADB22C4304847A
:1017300030BD70B50346002000241846183001253E
:101740008D40ACB21D8CA5431D8409B1082909D177
:1017500000EB6100056825F070050560056815431C
:1017600005600EE00D1FC5F34E052844056825F4FD
:10177000E045056005684FF6FF7606EA0226354328
:10178000056070BD21B1028842F00202028004E0CF
:1017900002884FF6FD731A400280704721B102881B
:1017A00042F00402028004E002884FF6FB731A4004
:1017B0000280704721B1828842F08002828004E07A
:1017C00082884FF67F731A408280704702884FF6F6
:1017D000F7731A40028002880A43028070478288A9
:1017E0004FF68F731A40828082880A438280704746
:1017F00002894FF6F8731A40028102890A43028176
:10180000704702894FF67F731A40028102890A43AA
:101810000281704781847047818570478186704757
:101820000187704781877047A0F840107047028891
:101830004FF6FF431A40028002880A430280704735
:101840000146888E70470146088F70470146888F91
:1018500070470146B1F8400070470146888C7047D8
:101860000146088D704702460020138A0B400BB1D9
:10187000012000E000207047CA430282704730B563
:101880000246002000230024158A05EA01039589F9
:1018900005EA010413B10CB1012000E0002030BDC5
:1018A000CA430282704710B5FEF7B0FE4FF4803095
:1018B000FEF7CCFEFEF709FF044600BF002CFDD06A
:1018C0000020FEF748FF4FF48060FEF74DFF002038
:1018D000FEF753FF4FF4E0114FF48030FEF71EFF88
:1018E0000120FEF727FF00BF3920FEF7D2FE0028B7
:1018F000FAD00220FEF721FF00BFFEF727FF0828DD
:10190000FBD110BD10B501210D20FEF7EDFF012127
:101910005C48FEF7FEFD10BD70B504460D4635B1BE
:101920000120A04081B25848FEF7CFFD05E001201C
:10193000A04081B25448FEF7CAFD70BD70B50446A0
:101940000D4635B10120A04081B25048FEF7BDFDE3
:1019500005E00120A04081B24C48FEF7B8FD70BD03
:1019600070B504460D4635B10120A04081B248480B
:10197000FEF7ABFD05E00120A04081B24448FEF730
:10198000A6FD70BD08B501210820FEF7ADFF0820B7
:10199000ADF8000010208DF8030003208DF8020040
:1019A00069463A48FEF7E4FC08BD08B50121082065
:1019B000FEF79AFF1020ADF800008DF80300032019
:1019C0008DF8020069463148FEF7D2FC08BD08B523
:1019D00001210420FEF788FF0120ADF80000482017
:1019E0008DF8030069462848FEF7C2FC08BD08B51B
:1019F00001210C20FEF778FF0320ADF800008DF8E0
:101A0000020010208DF8030069461F48FEF7B0FC65
:101A1000C320ADF8000003208DF8020010208DF8DF
:101A2000030069461948FEF7A3FC08BD70B50446DB
:101A30000D46062C22D2DFE804F003080D12171C15
:101A400029460020FFF77AFF19E029460020FFF71A
:101A500063FF14E029460120FFF770FF0FE02946DD
:101A60000620FFF76BFF0AE029460720FFF766FF15
:101A700005E029460120FFF74FFF00E000BF00BF4F
:101A800070BD00000002300000080140000C014061
:101A900000100140704700BF011EA0F1010290B28A
:101AA000FAD1704700BF011EA0F1010290B2FAD135
:101AB000704700B5034602E00620FFF7ECFF181E52
:101AC000A3F101018BB2F7D100BD10B5044603E0CC
:101AD0004FF47A70FFF7EDFF201EA4F101018CB2E4
:101AE000F6D110BD10B504460021204600F09BFC45
:101AF00001D2204610BD84F00040FBE700204FF0EB
:101B0000E0218861C04848610846006940F007004C
:101B10000861704700204FF0E0218861BB480068F1
:101B2000401CBA49086070477FB505460C46012144
:101B30000846FEF7E6FEADF80850ADF80440002078
:101B4000ADF80A00ADF8060001A94FF08040FFF79C
:101B500071F800214FF08040FFF7C8FC01221146C8
:101B60009007FFF7DEFB1C208DF8000001208DF8A8
:101B7000010002208DF8020001208DF80300684664
:101B8000FEF71BFF01218807FFF7B0FB7FBD30B5D3
:101B900089B005460C4601210220FEF7B2FE012164
:101BA0000820FEF7A1FE0320ADF8200018208DF8D4
:101BB000230003208DF8220008A99548FEF7D8FBE2
:101BC000ADF81850ADF814400020ADF81A00ADF88B
:101BD000160005A98F48FFF72DF86020ADF8040026
:101BE0000120ADF806000020ADF80C004FF4FA70AB
:101BF000ADF80A0001A98748FFF7E8F808218548F1
:101C0000FFF7BAFC01A98348FFF72BF908218148A7
:101C1000FFF7BBFC01217F48FFF768FB09B030BD2F
:101C200030B589B005460C4601210420FEF769FE57
:101C300001210820FEF758FE4FF44070ADF8200057
:101C400018208DF8230003208DF8220008A9704881
:101C5000FEF78EFBADF81850ADF814400020ADF83B
:101C60001A00ADF8160005A96B48FEF7E3FF6020E7
:101C7000ADF804000120ADF806000020ADF80C001E
:101C80004FF4FA70ADF80A0001A96348FFF79EF817
:101C900008216148FFF770FC01A95F48FFF7E1F8F0
:101CA00008215D48FFF771FC01215B48FFF71EFB2F
:101CB00009B030BD10B504460021204600F0B3FB4A
:101CC00001D2204610BD84F00040FBE72DE9F04131
:101CD0000446524901EB0411C868002100F0A4FA3F
:101CE00041D04E4A02EB0412D1684C4A02EB041276
:101CF000D06800F02BFA0746FFF7DCFF054647499E
:101D000001EB0411488800F0FBFA8046434800EBE1
:101D100004108168404600F0B7FB0746FFF7CAFF92
:101D20000646294600F000FB0FD83C4901EB0411A0
:101D3000488800F0E5FA394901EB04118860002079
:101D4000364901EB0411C8600DE0344A02EB04127D
:101D5000D168324A02EB0412906800F0F7F92F497B
:101D600001EB04118860BDE8F08110B501218807FE
:101D7000FFF785FD002845D001218807FFF790FD7A
:101D800027480078082802D10020254908702548F6
:101D90000078A0B92149224A127801EB0211886823
:101DA00000F076FA4FF08041888501211C480078C8
:101DB000FFF73CFE1A480078FFF788FF1AE0174942
:101DC000174A127801EB0211886800F061FA40F6B8
:101DD000C4110C1A142C00DA14244FF080418C85A5
:101DE00000210F480078FFF721FE0D480078401CC5
:101DF0000B4908700B48007808B9012000E000206A
:101E00000849087010BD000040190100240000209E
:101E1000000C014000040040000800404800002081
:101E20001D0000201C00002000200BE01C491D4A62
:101E300002EB0012916000211A4A02EB0012D160FD
:101E4000411CC8B20828F1DB0021174A1170174A5B
:101E50001160704770B504460B4621461A4619E0DA
:101E600008781578A84214D10AE011F8015B12F83D
:101E7000016BB54204D0D01A081A411C1A4602E080
:101E800010780028F1D100BF107818B9081B80B273
:101E900070BD491C08780028E2D100BFF8E70000B7
:101EA0000080BB44480000202000002024000020C7
:101EB0000948804709480047FEE7FEE7FEE7FEE7DE
:101EC000FEE7FEE7FEE7FEE7FEE7FEE7044805491A
:101ED000054A064B70470000CF1F0008ED000008C0
:101EE00028090020280F0020280B0020280B0020A4
:101EF0000CB50020019000906C48006840F48030E0
:101F00006A49086000BF6948006800F4003000902A
:101F10000198401C0190009818B90198B0F5A06F85
:101F2000F1D16248006800F4003010B10120009047
:101F300001E0002000900098012843D15C4800682F
:101F400040F010005A4908600846006820F003007D
:101F500008600846006840F0020008605348406886
:101F6000524948600846406848600846406840F466
:101F7000806048600846406820F47C10486008464D
:101F8000406840F4E81048600846006840F08070FF
:101F9000086000BF4548006800F000700028F9D0D4
:101FA0004248406820F003004049486008464068C5
:101FB00040F00200486000BF3C48406800F00C0060
:101FC0000828F9D10CBD10B5FFF792FF10BD10B570
:101FD0003648006840F0010034490860084640680F
:101FE0003449084031494860084600683249084091
:101FF0002E4908600846006820F4802008600846E2
:10200000406820F4FE0048604FF41F008860FFF72E
:10201000DAFF4FF000602949086010BD10B50021BB
:1020200000200022214B5B6803F00C0121B1042940
:1020300006D0082928D107E0214B224C236027E055
:102040001F4B204C236023E0184B5B6803F4701097
:10205000164B5B6803F48032022303EB904022B9F5
:10206000194B4343174C23600DE0104B5B6803F49E
:10207000003323B1144B4343124C236003E0104B55
:102080004343104C236003E00D4B0E4C236000BF14
:1020900000BF064B5B68C3F303130C4CE15C094BB8
:1020A0001B68CB40074C236010BD000000100240AD
:1020B000002002400000FFF8FFFFF6FE08ED00E000
:1020C00000127A003400002000093D003800002092
:1020D000704770477047754600F02CF8AE46050013
:1020E0006946534620F00700854618B020B5FFF733
:1020F000EDFEBDE820404FF000064FF000074FF026
:1021000000084FF0000B21F00701AC46ACE8C00915
:10211000ACE8C009ACE8C009ACE8C0098D4670471E
:1021200010B50446AFF300802046BDE81040FEF72E
:1021300024B8000000487047C80800200149182052
:10214000ABBEFEE7260002007047000090EA010FD8
:1021500048BF81F0004100F19E81421A3CBF801AC5
:1021600089184FEAD0524FF07F4C1CEA410FA2EB86
:10217000D15318BF9CEA026F00F03B804FF0004C37
:102180004CEA00204CEA012121FA03FC10EB0C0C74
:102190001ED202F1FF325FEA1C2040EBC25038BF72
:1021A00070471CF07F0F4FEA400C18BFBCF17F4F07
:1021B00038BF7047C3F12003994008BF20F00100E9
:1021C000BCF17F4F38BF7047A0F1C04000F026B986
:1021D0004FEA3C00000A40EBC25028BF1CF0FF0F42
:1021E0004FEA400CE6D018BFBCF17F4F38BF7047B4
:1021F000EAE79CEA026F05D010EA5C0F08BF00F026
:102200000040704710B500F0C3F800BF64FBBE3E4D
:10221000401058BFC0F14040491058BFC1F1404183
:102220008142EFF30080704750EA010C00F1138007
:102230001CF5000F58BFBCF5000F01D48842704751
:1022400007D710F5000F58BF11F5000F15D48842BD
:102250007047894270471CF5000F04D5BCF5000F8C
:10226000F7D5814270474FF0807C1CEB400F38BFA0
:102270001CEB410F01D28142704710B500F088F885
:10228000922449004FF000504FF08051FFF7C0BF3B
:10229000C10DD1F19E0206DB4FEA002343F000435B
:1022A00023FA02F07047004207D54FEA4001B1F12E
:1022B000FE4F02D24FF00000704710B500F068F8F2
:1022C00049922480002070476FEA20007047000088
:1022D00010F0004148BF4042B0FA80F310FA03F218
:1022E000C3F19D030BD051EAC35101EB12205306F9
:1022F00038BF704700F1010008BF20F001007047AF
:10230000B0FA80F310FA03F2C3F19D030AD0D905A5
:1023100001EB1220530638BF704700F1010008BFDF
:1023200020F001007047000050EA010C00F113801A
:102330001CF5000F58BFBCF5000F01D48842704750
:1023400007D710F5000F58BF11F5000F15D48842BC
:102350007047894270471CF5000F04D5BCF5000F8B
:10236000F7D5814270474FF0807C1CEB400F38BF9F
:102370001CEB410F01D28142704710B500F008F804
:10238000922449004FF000504FF08051FFF740BFBA
:102390000EF1020E2EF0030E5EF8044B244204D41C
:1023A0004FEA4102B2F17F4F11D84FEA4003B3F137
:1023B0007F4F0CD80ED14FEAD07CB2F17F4F0CEB9F
:1023C0004C0C0CF1020C08BF4CEBD17C04E04FF03C
:1023D000080C01E04FEAD17C0CEB4C0324FA03F427
:1023E00004F00704B4F1040C06D20EEB840CBDE833
:1023F00010404CF0010C6047DFE80CF007080202C7
:102400004FF00040A0F5800010BD0846420018BF04
:10241000D2F1807288BF00F0004010BDFF2141EA78
:10242000D050C005704751EA000C00F113801CF534
:10243000000F58BFBCF5000F01D48142704707D789
:1024400011F5000F58BF10F5000F15D481427047E9
:10245000894270471CF5000F04D5BCF5000FF7D575
:10246000884270474FF0807C1CEB410F38BF1CEB5B
:10247000400F01D28842704780EA010081EA0001E2
:1024800080EA0100FFF779BF90EA010F48BF81F0B1
:1024900000413FF562AE421A04D882F00042A0EB40
:1024A000020011444FEAD0524FF07F4C1CEA410F1A
:1024B000A2EBD15318BF9CEA026F4AD04FF0004CF8
:1024C0004CEA00204CEA012121FA03FCB0EB0C0C91
:1024D0000FD412F0FE0F36D05FEA4C001DD500126B
:1024E00040EBC25038BF70471CF03F0F18BF704719
:1024F0000BE0A2F101025FEA1C2040EBC25038BFA2
:1025000070471CF07F0F18BF7047C3F1200399403C
:1025100014BF401E20F00100704780084FEA1223CC
:1025200008BF7047B0FA80FCA2EB0C02CCF1280C7B
:1025300060FA0CF093EA122F04BF00EBC250704710
:102540004FEAC3707047130A5FEADC1008BF704798
:10255000F6E79CEA026F04D010EA5C0F08BF002087
:10256000704710B5FFF714FF40DFF63E81F00040E2
:10257000704700009425000800000020480000007B
:1025800028010008DC25000848000020E00E0000BB
:1025900044010008000000000000000000000000EE
:1025A00001020304010203040607080902040608E5
:1025B000000000000000000000000000000000001B
:1025C000000000000000000000A24A04000000001B
:0C25D000000000000102030406070809D7
:04000005080000ED02
:00000001FF
